:03000000020026D5
:0C002600787FE4F6D8FD75812002006DA3
:08013800021100000213000097
:10000300C294759850758920758DFD758BFDD299B5
:10001300D28ED2AFD2AC3000FD1200B2C20080F655
:1000B200E50E54F0FFC4540F750C00F50DE50C70FD
:1000C20074E50DB40700506D9000D1F82828730232
:1000D20000E60200F20200FE020108020112020121
:1000E20022020131E50E540F750F00F510C2942261
:1000F200E50E540F750800F509D29422E50E540F4F
:10010200751700F51822E50E540F751500F5162225
:10011200E50E540F750A00F50B75110075120122D8
:10012200E50E540F750A00F50BE4F511F512227570
:0601320013007514012208
:0300230002014196
:0801410085990ED200C298322C
:10003200020003E493A3F8E493A34003F68001F2E1
:1000420008DFF48029E493A3F85407240CC8C333CF
:10005200C4540F4420C8834004F456800146F6DF9E
:10006200E4800B0102040810204080900138E47EF5
:10007200019360BCA3FF543F30E509541FFEE49393
:10008200A360010ECF54C025E060A840B8E493A35A
:10009200FAE493A3F8E493A3C8C582C8CAC583CA85
:1000A200F0A3C8C582C8CAC583CADFE9DEE780BE3D
:0101400000BE
:00000001FF
