:030000000200EF0C
:0C00EF00787FE4F6D8FD758144020136EC
:10021A007777772E7A6A752E6564752E636E20203D
:10022A00006564752E636E20200020202020202087
:10023A00202020566572322E373100566F6C746159
:10024A0067653A20005468696E6B6E657300733A8D
:07025A0020202020202000DD
:10038200103530313233343536373839414243440F
:020392004546DE
:0801CD008F2E8D2F8A308B313B
:1001D500E4FFE5312FF582E43530F583E493D394DC
:1001E5001F40030F80ECE4F532AF2E052EE53125D7
:1001F50032F582E43530F583E493FBAD2F12031914
:10020500E52EB41006E4F52E632F010532E532C361
:04021500941040D52C
:0102190022C2
:02029D008F339D
:10029F00E4F534AB3305337D01AF34120319533317
:1002AF007FE533C3942050037533200534E534C301
:0402BF00941040DF78
:0102C3002218
:10033F00EF75F0281202C4AFF0530501BD0103435E
:0A034F0007404307807D01020327E9
:10030600AF0BE513250BF582E512350AF583E49369
:03031600FBE4FD08
:0A0319008B1E12033FAF1E020359B2
:10026100120323120395120323120395120323127F
:1002710003957D017F381203277D017F0812032733
:100281007D017F011203277D017F061203277D0176
:0C0291007F0C1203277D017F020203276F
:04032300E4FD7F383E
:100327008F1FED600312036EC2B2C2B300851FA018
:0803370000D2B40000C2B422A0
:100359008F1F12036ED2B2C2B300851FA000D2B4A0
:050369000000C2B422F7
:10036E0075A0FFC2B2D2B300D2B40000E5A020E760
:04037E00FBC2B422E8
:0E0395007FB07E15EF1FAC0670011E4C70F697
:0103A3002237
:10017B001201B41201B41201B41201B41201B4127F
:10018B0001B41201B41201B41201B41201B4120180
:10019B00B41201B41201B41201B41201B41201B4BD
:0901AB001201B41201B41201B4F6
:1001B4007D05AC051DEC60107E1C7F65EF1FAA0653
:0801C40070011E4A60EC80F49A
:0101CC002210
:1002E600E4FDFCC3ED9FEC9E5015E4FBFA0BBB004E
:0F02F600010AEB640A4A70F50DBD00010C80E4AB
:0103050022D5
:10000300E4F508F50975120275131A7514027515CE
:100013002B751602751734751802751945751A0272
:10002300751B4F751C02751D581202611201B4E451
:10003300F50AF50B120306AF0BE515250BF582E563
:1000430014350AF583E493FB7D01120319050BE5CF
:100053000B7002050AC39410E50A940040D61201FE
:100063007B12017BE4F50AF50B120306AF0BE517D0
:10007300250BF582E516350AF583E493FB7D011222
:100083000319050BE50B7002050AC39410E50A94E6
:100093000040D6E4F50AF50B7D017F181203271201
:1000A30001AE050BE50B7002050AC39408E50A943B
:1000B3000040E51201997D017F02120327E4F50A4E
:1000C300F50BC3E50B9408E50A94004003020032E4
:1000D300AF0B7B20E4FD120319AF0B7B207D0112D4
:0C00E3000319050BE50B70DA050A80D646
:1000FB00020003E493A3F8E493A34003F68001F218
:10010B0008DFF48029E493A3F85407240CC8C33305
:10011B00C4540F4420C8834004F456800146F6DFD4
:10012B00E4800B0102040810204080900382E47EDF
:10013B00019360BCA3FF543F30E509541FFEE493C9
:10014B00A360010ECF54C025E060A840B8E493A390
:10015B00FAE493A3F8E493A3C8C582C8CAC583CABB
:10016B00F0A3C8C582C8CAC583CADFE9DEE780BE73
:010394000068
:1002C400C2D530F707B2D563F0FF05F030E70CB2C2
:1002D400D5F4048463F0FF05F080018430D502F482
:0202E4000422F2
:00000001FF
