:0F028F00C100C101C102010900010A00010800FC
:03000B0002016887
:10016800C0E0C0D075D000C006C007300030050818
:10017800AF087E00D3EF940874809480500DE50A90
:100188001392B1E50AC313F50A804AEF64094E7069
:1001980004D2B18040750800C28CD2028037AF0803
:1001A8007E00EF700D20B006F50905088027C28C87
:1001B8008023D3EF9408EE64809480500EE509C341
:1001C80013F50930B00F430980800A750800C28C06
:0E01D80030B002D201D007D006D0D0D0E03235
:10022A00D2AF7F807E2512024820B0FD12026430D0
:0E023A0001FDE50904FF12027F2002ED80FBAA
:100248005389F0438902AB07AA06E4F9F8FF7E1048
:0C0258007D0EFC1201E6EFF404F58C2290
:10026400AF8CC3E49FFF74019400C313EF13F40431
:0B027400F58AD2A9D28CC200C2012280
:10027F008F0A858C8AD2A9D28CC2B1C202D2002237
:030000000200DC1F
:0C00DC00787FE4F6D8FD75812002012336
:1001E600C2D5E830E70FB2D5E4C39BFBE49AFAE444
:1001F60099F9E498F8EC30E717B2D512021C120010
:100206004AE4C39BFBE49AFAE499F9E498F880037C
:1002160012004A30D50DE4C39FFFE49EFEE49DFD27
:04022600E49CFC2236
:1000E80002022AE493A3F8E493A34003F68001F202
:1000F80008DFF48029E493A3F85407240CC8C33319
:10010800C4540F4420C8834004F456800146F6DFE7
:10011800E4800B010204081020408090028FE47EE6
:10012800019360BCA3FF543F30E509541FFEE493DC
:10013800A360010ECF54C025E060A840B8E493A3A3
:10014800FAE493A3F8E493A3C8C582C8CAC583CACE
:10015800F0A3C8C582C8CAC583CADFE9DEE780BE86
:01029E00005F
:10000E0075F008758200EF2FFFEE33FECD33CDCCA9
:10001E0033CCC58233C5829BED9AEC99E58298402C
:10002E000CF582EE9BFEED9AFDEC99FC0FD5F0D609
:10003E00E4CEFBE4CDFAE4CCF9A88222B800C1B933
:10004E000059BA002DEC8BF084CFCECDFCE5F0CB71
:10005E00F97818EF2FFFEE33FEED33FDEC33FCEBAA
:10006E0033FB10D703994004EB99FB0FD8E5E4F965
:10007E00FA227818EF2FFFEE33FEED33FDEC33FC52
:10008E00C933C910D7059BE99A4007EC9BFCE99A46
:10009E00F90FD8E0E4C9FAE4CCFB2275F010EF2F8B
:1000AE00FFEE33FEED33FDCC33CCC833C810D7078B
:1000BE009BEC9AE899400AED9BFDEC9AFCE899F8C6
:0E00CE000FD5F0DAE4CDFBE4CCFAE4C8F92259
:00000001FF
