:030000000202F702
:0C02F700787FE4F6D8FD75811502021D29
:03031200563A0058
:1002A2007F011202EA7F381202EA7F0C1202EA7F11
:0402B200060202EA54
:1002B60075A0FFC2B2D2B3D2B4AFA0C2B4EF20E7EA
:0102C600F641
:0102C7002214
:0A026800C2B38EA0D2B47F0A7E005C
:10027200EF1FAC0670011E4C600A7D0F7C5ADCFE3B
:04028200DDFC80EC33
:010286002255
:10024800E4FDFCC3ED9FEC9E5015E4FBFA0BBB00EC
:0F025800010AEB640A4A70F50DBD00010C80E449
:010267002274
:0D02EA00AE071202B6C2B2120268C2B42200
:0302DA002430FFCE
:0D02DD00AE071202B6D2B2120268C2B422FD
:05030D007F010202EA7D
:1002C800ED7004AB078004EF2440FBEB4480FF0291
:0202D80002EA38
:080003008F0A8D0B8A0C8B0D96
:10000B00AE0CAF0D7C277D101201288F828E837C66
:10001B00277D10120116AA06AB07C3E50D9BFFE562
:10002B000C9AFE7C037DE81201288E0E8F0FC3E520
:10003B000D9BFBE50C9AFA7C037DE8120116C3EBD2
:10004B009FFFEA9EFE7C007D641201288E108F11AB
:10005B00AE0EAF0F7C037DE8120116C3EB9FFBEADC
:10006B009EFAAE10AF117C007D64120116C3EB9F9C
:10007B00FFEA9EFE7D0A1201288E128F13AE0CAF83
:10008B000D7C007D0A1201288C148D15AD0BAF0A67
:10009B001202C8E58245836006AF82EF1202DAE5F1
:1000AB008245837006E50F450E6005E50F1202DAF7
:1000BB00E5824583700CE50F450E7006E511451082
:1000CB006008E5112430FF1202DDE58245837012D2
:1000DB00E50F450E700CE51145107006E513451242
:1000EB006008E5132430FF1202DDE5152430FF0212
:0200FB0002DD24
:10028700AE07530501AF05EF7005EE24808003EE3E
:0B02970024C0FF1202EAAF030202DDE8
:10017D008F0A8D0B8B0C8A0D890ED3E50B940174B0
:10018D00809480503FAB0CAA0DA90E1200FD603477
:10019D00AF0A050A050EE50E7002050D14F91200E1
:1001AD00FDFBAD0B120287AB0CAA0DA90E1200FDC3
:1001BD00B40AD2E4F50A050B04250EF50EE4350D4F
:0501CD00F50D80C122C8
:0201D200A9077B
:1001D400E4FE43C5807F0A120248A8017401088026
:1001E40002C333D8FCFF4291EF42927F0A7E001291
:1001F4000248E944E0F5C5120248E4F5C6F5BE43F9
:10020400C50812024853C5E7AFC6EF7802C333CE20
:0802140033CED8F9E5BEAFC6F8
:01021C0022BF
:0A030300C2998F993099FDC299222A
:10021D001202A27F071201D27508008F097BFF7AA7
:10022D00037912E4FDFF12017DAF09120303AB093F
:0B023D00AA087D017F0312000380D897
:1000FD00BB010689828A83E0225002E722BBFE0201
:09010D00E32289828A83E4932233
:10011600EF8DF0A4A8F0CF8CF0A428CE8DF0A42EFD
:02012600FE22B7
:10012800BC000BBE0029EF8DF084FFADF022E4CCBB
:10013800F875F008EF2FFFEE33FEEC33FCEE9DEC84
:10014800984005FCEE9DFE0FD5F0E9E4CEFD22EDCA
:10015800F8F5F0EE8420D21CFEADF075F008EF2F14
:10016800FFED33FD4007985006D5F0F222C398FD05
:050178000FD5F0EA22A2
:00000001FF
