:030000000208D91A
:0C08D900787FE4F6D8FD75814502092007
:090C96004C696768743A00210002
:100A7F0002440000022C000002420000023600096E
:100A8F00013500013300013000024000C8023C0074
:100A9F0001013200013400C100C101023A0000021D
:100AAF003E00000238000002260000022E00000166
:060ABF00230002240000E8
:10058400120C4212000E120C2E7F017E001209651D
:10059400C290C291C292D297C294E4F538F539F56B
:1005A40026F527F52EF52FF542754301438E1043AA
:1005B400A8BAD2AF120BC9120B0AC290C291C2924E
:1005C4007F647E00120BCD7F061209D48E2C8F2DF2
:1005D4007BFF7A0C79967D01E4FF120A2AAB2DAADF
:1005E4002C7D017F0712068930020DAB31E4FDFF3B
:1005F400120BE2120783C202E54345427002807681
:10060400E543640145426010E543640245426008E5
:10061400E54364034542700CD2943001AAC201122E
:100624000B4580A3E543640445427012C3E5399544
:100634002BE538952A4090E4F542F5438089E5435B
:1006440064054542701A120C55C3E539952BE538FB
:10065400952A50030205CBC290C291C2920205CBE7
:10066400E5436406454260030205CBD3E52D94902F
:10067400E52C94015006120C550205CBC290C29190
:05068400C2920205CB4B
:10000E0075914875924FE4F5C6F5BE75C5637F0AC6
:04001E00FE020BA72C
:100C420075985A758920758BFD758DFDD299D28E56
:030C5200D2AC22FF
:100C2E007F01120C177F38120C177F0C120C177FD6
:040C3E0006020C1787
:100B0A00C290C291D292120BC97F031209D48E44A9
:100B1A008F45120B78D290C291120BC77F0312092C
:100B2A00D48E448F45120B78C290D291120BC77F94
:0B0B3A00031209D48E448F45020B7893
:10078300E53154F0C4540F754200F5434542702FD0
:10079300E531540F753600F537D39408E5369400E8
:1007A300500DE53724FFF52FE53634FFF52E22E50E
:1007B3003764094536600302083BF52EF52F22E521
:1007C30043640145427007E531540FF53522E54393
:1007D300640245427007E531540FF53322E5436463
:1007E3000345427007E531540FF53022E5436404B5
:1007F30045427018E531540F752A00F52BE4F5389E
:10080300F539F526F527F52875290122E543640511
:1008130045427017E531540F752A00F52BE4F5387E
:10082300F539F526F527F528F52922E5436406452C
:09083300426005E4F542F54322A0
:100C5500300007C2007F01120026300105C20112D3
:030C65000B45221A
:04096500AB07AA062C
:10096900438E80750B00750A1075090E750800AE67
:1009790002AF03E4FCFDAB0BAA0AA909A8081204FB
:100989003EE47BE87A03F9F81204C98F0B8E0A8DCD
:10099900098C08C3E4950BF50BE4950AF50A740173
:1009A9009509F509E49508F508AF0BAE0AAD09FC00
:1009B90078081205718F32850B3485328C85348A1B
:0A09C9005389F0438901D28CD2A9B2
:0109D3002201
:03000B0002083CAC
:10083C00C0E0C0F0C083C082C0D075D000C000C082
:0D084C0001C002C003C004C005C006C00703
:1008590085328C85348AD294E5222401FFE435213E
:10086900FEE4FCFD7B607AEAF9F8120AC6AE02AF33
:10087900038E218F227C007D0A1203E9ED64094C65
:100889007002D200E52230E002D201AE21AF22E4AB
:10089900FCFD7B5F7AEAF9F8C312055B701705392D
:1008A900E53970020538C39411E53894004006759E
:0508B900380075390054
:1008BE00D007D006D005D004D003D002D001D0008E
:0B08CE00D0D0D082D083D0F0D0E03238
:100C680075A0FFC2B2D2B3D2B4AFA0C2B4EF20E72E
:010C7800F685
:010C79002258
:060BC700C2927FF47E01E2
:100BCD00EF1FAC0670011E4C600A7D0F7C5ADCFED7
:040BDD00DDFC80ECCF
:010BE10022F1
:100BA700E4FDFCC3ED9FEC9E5015E4FBFA0BBB0084
:0F0BB700010AEB640A4A70F50DBD00010C80E4E1
:010BC600220C
:100C1700AE07120C68C2B2C2B38EA0D2B47F0A7EEE
:070C270000120BCDC2B42244
:030BFD002430FFA2
:100C0000AE07120C68D2B2C2B38EA0D2B47F0A7EF5
:070C100000120BCDC2B4225B
:050C9F007F01020C17AB
:100C7A00ED7004AB078004EF2440FBEB4480FF02D5
:020C8A000C1745
:080689008F088D098A0A8B0B12
:10069100AE0AAF0B7C277D101203E98F828E837C1B
:1006A100277D101203D7AA06AB07C3E50B9BFFE515
:1006B1000A9AFE7C037DE81203E98E0C8F0DC3E5D7
:1006C1000B9BFBE50A9AFA7C037DE81203D7C3EB87
:1006D1009FFFEA9EFE7C007D641203E98E0E8F0F60
:1006E100AE0CAF0D7C037DE81203D7C3EB9FFBEA91
:1006F1009EFAAE0EAF0F7C007D641203D7C3EB9F51
:10070100FFEA9EFE7D0A1203E98E108F11AE0AAF39
:100711000B7C007D0A1203E98C128D13AD09AF0821
:10072100120C7AE58245836006AF82EF120BFDE57C
:100731008245837006E50D450C6005E50D120BFD44
:10074100E5824583700CE50D450C7006E50F450EFD
:100751006008E50F2430FF120C00E582458370121A
:10076100E50D450C700CE50F450E7006E5114510C1
:100771006008E5112430FF120C00E5132430FF025C
:020781000C006A
:100BE200AE07530501AF05EF7005EE24808003EEDA
:0B0BF20024C0FF120C17AF03020C0020
:100A2A008F088D098B0A8A0B890CD3E50994017406
:100A3A00809480503FAB0AAA0BA90C1203BE603403
:100A4A00AF080508050CE50C7002050B14F9120332
:100A5A00BEFBAD09120BE2AB0AAA0BA90C1203BE2C
:100A6A00B40AD2E4F508050904250CF50CE4350BA3
:050A7A00F50B80C12214
:0209D400A90771
:1009D600E4FE43C5807F0A120BA7A80174010880B4
:1009E60002C333D8FCFF4291EF42927F0A7E001287
:1009F6000BA7E944E0F5C5120BA7E4F5C6F5BE431F
:100A0600C508120BA753C5E7AFC6EF7802C333CEAE
:100A160033CED8F9FF5307FC530603E5BE5403FD56
:030A2600ED420797
:010A290022AA
:100B7800C3EF940FEE94005023C2AF7BFF7A0C7939
:100B88009D7D017F0F120A2AD294D2977F407E9CC6
:0F0B9800120BA7C294C297120BA780DFD2AF2215
:0A0C8C00C2998F993099FDC2992298
:02002600AD0724
:10002800E52E60030203BDE52FB408004003020378
:10003800BD900040F82828730200580200BF020152
:10004800360201A50202120202810202EE020351E7
:10005800E5237023ED2525F525E43524F5248525AC
:1000680035E4F533F530C3E5259541E52495405051
:10007800030203BD020373EDFFC3E5259FF525E5E4
:10008800249400F524852535E4F533F530D3E525AA
:10009800953DE524953C40030203BDE4F523F52492
:1000A800F525E5376401453670030203B2E5376488
:1000B80009453670768064E5237028ED2525F525F9
:1000C800E43524F524852535C313E52513F533E4F4
:1000D800F530C3E5259541E524954050030203BD5D
:1000E800020373EDFFC3E5259FF525E5249400F58C
:1000F80024852535C313E52513F533E4F530D3E519
:1001080025953DE524953C40030203BDE4F523F520
:1001180024F525E537640245367006F52E752F015E
:1001280022E537640945367002805F0203B7E5238C
:100138007024ED2525F525E43524F524AF258F35E4
:100148008F33E4F530C3E5259541E5249540500308
:100158000203BD020373EDFFC3E5259FF525E524E2
:100168009400F524AF258F358F33E4F530D3E5259A
:10017800953DE524953C40030203BDE4F523F524B1
:10018800F525E537640345367006F52E752F0222EE
:10019800E537640945367002805D0203B7E52370D0
:1001A80023ED2525F525E43524F524E4F5358525C5
:1001B80033F530C3E5259541E52495405003020306
:1001C800BD020373EDFFC3E5259FF525E5249400E3
:1001D800F524E4F535852533F530D3E525953DE55A
:1001E80024953C40030203BDE4F523F524F525E5F9
:1001F80037640445367006F52E752F0322E53764FB
:100208000945367002805F0203B7E5237024ED25A7
:1002180025F525E43524F524E4F535AF258F338F0E
:1002280030C3E5259541E524954050030203BD02FE
:100238000373EDFFC3E5259FF525E5249400F52418
:10024800E4F535AF258F338F30D3E525953DE5248B
:10025800953C40030203BDE4F523F524F525E53775
:10026800640545367006F52E752F0422E5376409B6
:1002780045367002805D0203B7E5237023ED25251E
:10028800F525E43524F524E4F535F533852530C323
:10029800E5259541E524954050030203BD0203730B
:1002A800EDFFC3E5259FF525E5249400F524E4F545
:1002B80035F533852530D3E525953DE524953C4036
:1002C800030203BDE4F523F524F525E53764064567
:1002D800367006F52E752F0522E537640945367008
:1002E80002805E0203B7E5237023ED2525F525E49A
:1002F8003524F524AF258F35E4F5338F30C3E52554
:100308009541E524954050030203BD805EEDFFC38F
:10031800E5259FF525E5249400F524AF258F35E4E0
:10032800F5338F30D3E525953DE524953C40030210
:1003380003BDE4F523F524F525E537640745367054
:1003480006F52E752F06228066E5237022ED2525F9
:10035800F525E43524F524AF258F338F30852535F1
:10036800C3E5259541E5249540404A75230122C3FC
:10037800E5259DF525E5249400F524AF258F338FD9
:1003880030852535D3E525953DE524953C5026E473
:10039800F523F524F525E537640845367004F52E70
:1003A8008010E537640945367005F52EF52F22755E
:0503B8002E00752F0767
:0103BD00221D
:100B4500E4FFEFC39541E495405027EFC395355039
:100B550004D2908002C290EFC395335004D29180A5
:100B650002C291EFC395305004D2928002C2920F17
:020B750080D02E
:010B7700225B
:03002300020003D5
:08000300859931D202C2983246
:1008E500020584E493A3F8E493A34003F68001F2A0
:1008F50008DFF48029E493A3F85407240CC8C33314
:10090500C4540F4420C8834004F456800146F6DFE2
:10091500E4800B0102040810204080900A7FE47EE9
:10092500019360BCA3FF543F30E509541FFEE493D7
:10093500A360010ECF54C025E060A840B8E493A39E
:10094500FAE493A3F8E493A3C8C582C8CAC583CAC9
:10095500F0A3C8C582C8CAC583CADFE9DEE780BE81
:010AC5000030
:1003BE00BB010689828A83E0225002E722BBFE023D
:0903CE00E32289828A83E4932270
:1003D700EF8DF0A4A8F0CF8CF0A428CE8DF0A42E3A
:0203E700FE22F4
:1003E900BC000BBE0029EF8DF084FFADF022E4CCF8
:1003F900F875F008EF2FFFEE33FEEC33FCEE9DECC1
:10040900984005FCEE9DFE0FD5F0E9E4CEFD22ED06
:10041900F8F5F0EE8420D21CFEADF075F008EF2F50
:10042900FFED33FD4007985006D5F0F222C398FD41
:050439000FD5F0EA22DE
:10043E00E88FF0A4CC8BF0A42CFCE98EF0A42CFC5D
:10044E008AF0EDA42CFCEA8EF0A4CDA8F08BF0A4DB
:10045E002DCC3825F0FDE98FF0A42CCD35F0FCEB3A
:10046E008EF0A4FEA9F0EB8FF0A4CFC5F02ECD39FF
:0F047E00FEE43CFCEAA42DCE35F0FDE43CFC226C
:10048D0075F008758200EF2FFFEE33FECD33CDCC26
:10049D0033CCC58233C5829BED9AEC99E5829840A9
:1004AD000CF582EE9BFEED9AFDEC99FC0FD5F0D686
:1004BD00E4CEFBE4CDFAE4CCF9A88222B800C1B9B0
:1004CD000059BA002DEC8BF084CFCECDFCE5F0CBEE
:1004DD00F97818EF2FFFEE33FEED33FDEC33FCEB27
:1004ED0033FB10D703994004EB99FB0FD8E5E4F9E2
:1004FD00FA227818EF2FFFEE33FEED33FDEC33FCCF
:10050D00C933C910D7059BE99A4007EC9BFCE99AC2
:10051D00F90FD8E0E4C9FAE4CCFB2275F010EF2F07
:10052D00FFEE33FEED33FDCC33CCC833C810D70707
:10053D009BEC9AE899400AED9BFDEC9AFCE899F842
:0E054D000FD5F0DAE4CDFBE4CCFAE4C8F922D5
:100AC600C2D5E830E70FB2D5E4C39BFBE49AFAE45B
:100AD60099F9E498F8EC30E717B2D5120AFC12043B
:100AE600C9E4C39BFBE49AFAE499F9E498F8800315
:100AF6001204C930D50DE4C39FFFE49EFEE49DFDBC
:040B0600E49CFC224D
:10055B00EB9FF5F0EA9E42F0E99D42F0EC6480C817
:06056B0064809845F022B7
:10057100E8600FECC313FCED13FDEE13FEEF13FF68
:03058100D8F1228C
:00000001FF
