:03000000020158A2
:0C015800787FE4F6D8FD7581110200EEFE
:10014700C28CD2A9D2B9758901E4F58CF58AD28C13
:010157002285
:06000300120147D2AF22FA
:03000B0002000EE2
:10000E00C0E0C0F0C083C082C0D075D000C000C0B8
:10001E0001C002C003C004C005C006C007758CFC39
:10002E00758A18E5112401F511E43510F510E43543
:10003E000FF50FE4350EF50EE47FE87E03FDFCAB05
:10004E0011AA10A90FA80ED31200DD4012751100CF
:10005E00751000750F00750E00750800750901D03A
:10006E0007D006D005D004D003D002D001D000D0E6
:0A007E00D0D082D083D0F0D0E03261
:1000EE00120003E4F50AF50BE509450860FAE4F59C
:1000FE0008F509050BE50B7002050AAE0AFF7C0038
:10010E007D031200888C0A8D0BE50A7024E50B1412
:10011E00600F14601424027018D290C291C29280A3
:10012E00C7C290D291C29280BFC290C291D2928029
:09013E00B7C290C291C29280AFD9
:10008800BC000BBE0029EF8DF084FFADF022E4CC5C
:10009800F875F008EF2FFFEE33FEEC33FCEE9DEC25
:1000A800984005FCEE9DFE0FD5F0E9E4CEFD22ED6B
:1000B800F8F5F0EE8420D21CFEADF075F008EF2FB5
:1000C800FFED33FD4007985006D5F0F222C398FDA6
:0500D8000FD5F0EA2243
:1000DD00EB9FF5F0EA9E42F0E99D42F0E89C45F079
:0100ED0022F0
:00000001FF
