:100D340021006F726465723A006D6F643A00523A32
:100D440000473A00423A00636C6F636B3A0020003C
:070D54006C696768743A0046
:100CAA00021B0000022A00000219000001230001B1
:100CBA002500012400012200022E00C8022C000196
:100CCA000228000902300000012100010A00020B7B
:020CDA00000018
:100D0C0075985053890F438920AB07AA06E4F9F86C
:100D1C007F807E70FDFC120C2EEFF404F58D858D1A
:080D2C008BC2ABD2ACD28E22C7
:100E18005389F0438901758CFC758A67D28CD2A9F5
:010E280022A7
:100D5B00E4FDFCC3ED9FEC9E5015E4FBFA0BBB00CE
:0F0D6B00010AEB640A4A70F50DBD00010C80E42B
:010D7A002256
:0E0E2900E4F5C6F5BE75C5637F0AFE020D5BDB
:03002300020E3793
:0E0E3700309805C298859923309902C29932ED
:03000B00020B00E5
:100B0000C0E0C0F0C0D075D000C000C004C005C0B7
:030B100006C00715
:100B1300758CFC758A67E5092401FFE43508FE7CC2
:100B2300037DE81208478C088D09E50930E0067556
:100B33001B00751C01AE08AF097C007D0A12084733
:100B4300ED64094C7005F52A752B01E509B4E70B33
:0B0B5300E508B40306751900751A01CF
:100B5E00D007D006D005D004D000D0D0D0F0D0E051
:010B6E003254
:0B0B6F00C2927FF47E0112000E7F0393
:020B7A00A907C9
:100B7C00E4FE43C5807F0A120D5BA8017401088056
:100B8C0002C333D8FCFF4291EF42927F0A7E0012DF
:100B9C000D5BE944E0F5C5120D5BE4F5C6F5BE430B
:100BAC00C508120D5B53C5E7AFC6EF7802C333CE51
:100BBC0033CED8F9FF5307FC530603E5BE5403FDAF
:030BCC00ED4207F0
:010BCF002203
:050C7200E4F51BF51C78
:100C7700E4FFEFC3952FE4952E5027EFC39525503A
:100C870004D2908002C290EFC395245004D2918081
:100C970002C291EFC395225004D2928002C2920FF2
:020CA70080D0FB
:010CA9002228
:07046300E4F52AF52B7F01EF
:02046A00AB07DE
:10046C00E521B40800400302081B90047DF82828FD
:10047C00730204950204FF0205820205F70206626C
:10048C000206DB0207460207B6E50A7023EB250CD1
:10049C00F50CE4350BF50B850C25E4F524F522C39E
:1004AC00E50C952FE50B952E500302081B0207D87F
:1004BC00EBFFC3E50C9FF50CE50B9400F50B850CDD
:1004CC0025E4F524F522D3E50C952DE50B952C4070
:1004DC000302081BE4F50AF50BF50CE5296401454C
:1004EC00287003F52122E5296409452870028075DE
:1004FC00020818E50A702FEB250CF50CE4350BF50A
:10050C000B850C25FEE50C7802CEC313CE13D8F95F
:10051C00F524E4F522C3E50C952FE50B952E50033D
:10052C0002081B0207D8EBFFC3E50C9FF50CE50B8B
:10053C009400F50B850C25FEE50C7802CEC313CE8A
:10054C0013D8F9F524E4F522D3E50C952DE50B959C
:10055C002C400302081BE4F50AF50BF50CE52964A5
:10056C00024528700475210122E52964094528708B
:10057C00028067020818E50A7028EB250CF50CE4DC
:10058C00350BF50B850C25C313E50C13F524E4F59D
:10059C0022C3E50C952FE50B952E500302081B0288
:1005AC0007D8EBFFC3E50C9FF50CE50B9400F50B9E
:1005BC00850C25C313E50C13F524E4F522D3E50CC7
:1005CC00952DE50B952C400302081BE4F50AF50B61
:1005DC00F50CE52964034528700475210222E529F0
:1005EC00640945287002805D020818E50A7023EB47
:1005FC00250CF50CE4350BF50BE4F525850C24F5F1
:10060C0022C3E50C952FE50B952E500302081B0217
:10061C0007D8EBFFC3E50C9FF50CE50B9400F50B2D
:10062C00E4F525850C24F522D3E50C952DE50B95E9
:10063C002C400302081BE4F50AF50BF50CE52964C4
:10064C00044528700475210322E5296409452870A6
:10065C0002806B020818E50A702AEB250CF50CE4F5
:10066C00350BF50BE4F525850C24E50BC313E50CD4
:10067C0013F522C3E50C952FE50B952E50030208BC
:10068C001B0207D8EBFFC3E50C9FF50CE50B9400A0
:10069C00F50BE4F525850C24E50BC313E50C13F5DC
:1006AC0022D3E50C952DE50B952C400302081BE499
:1006BC00F50AF50BF50CE529640545287004752140
:1006CC000422E529640945287002805D020818E5BA
:1006DC000A7023EB250CF50CE4350BF50BE4F52532
:1006EC00F524850C22C3E50C952FE50B952E5003B4
:1006FC0002081B0207D8EBFFC3E50C9FF50CE50BBA
:10070C009400F50BE4F525F524850C22D3E50C9526
:10071C002DE50B952C400302081BE4F50AF50BF5AF
:10072C000CE52964064528700475210522E5296429
:10073C000945287002806D020818E50A702CEB251B
:10074C000CF50CE4350BF50BFEAF0C7C007D0312A5
:10075C0008478F25E4F524850C22C3E50C952FE57D
:10076C000B952E500302081B8062EBFFC3E50C9F18
:10077C00F50CE50B9400F50BFEAF0C7C007D031221
:10078C0008478F25E4F524850C22D3E50C952DE53F
:10079C000B952C507AE4F50AF50BF50CE52964075A
:1007AC0045287004752106228062E50A7022EB252B
:1007BC000CF50CE4350BF50BAF0C8F248F22850C4C
:1007CC0025C3E50C952FE50B952E4043750A0122A8
:1007DC00C3E50C9BF50CE50B9400F50BAF0C8F24CB
:1007EC008F22850C25D3E50C952DE50B952C501FF0
:1007FC00E4F50AF50BF50CE5296408452870028030
:0F080C000BE529640945287003F52122752107A2
:01081B0022BA
:10000E00EF1FAC0670011E4C600A7D0F7C5ADCFEA1
:04001E00DDFC80EC99
:0100220022BB
:100DE20075A0FFC2B2D2B3D2B4AFA0C2B4EF20E7B3
:010DF200F60A
:010DF30022DD
:100DF400AE07120DE2C2B2C2B38EA0D2B40000C2DA
:020E0400B42216
:100DCE007F01120DF47F38120DF47F0C120DF47F9B
:040DDE0006020DF408
:040DB800EF2430FFF5
:100DBC00AE07120DE2D2B2C2B38EA0D2B40000C202
:020DCC00B4224F
:050003007F01020DF475
:100E0600ED7004AC078004EF2440FCEC4480FF0244
:020E16000DF4D9
:0B096A00E525C313FB7A00E4FD7F02CB
:080975008F328D338A348B357B
:10097D00AE34AF357C277D10120847AB07AA067C35
:10098D00277D101208358E838F82C3E5359582FF42
:10099D00E5349583FE7C037DE81208478E368F374C
:1009AD00C3E5359582F582E5349583F5837C037D2A
:1009BD00E8120835C3E5829FFFE5839EFE7C007D2E
:1009CD00641208478E388F39AE36AF377C037DE819
:1009DD00120835C3E5829FF582E5839EF583AE3817
:1009ED00AF397C007D64120835C3E5829FFFE58336
:1009FD009EFE7D0A1208478F828E83AE34AF357C02
:100A0D00007D0A1208478C3A8D3BAD33AF32120E82
:100A1D0006EB4A6005AF03120DB8EB4A7006E537D9
:100A2D0045366008E5372430FF120DBCEB4A700CDB
:100A3D00E53745367006E53945386008E539243027
:100A4D00FF120DBCEB4A7012E5374536700CE539D7
:100A5D0045387006E58245836005AF82120DB8E515
:070A6D003B2430FF020DBC29
:100D9B00AE07AC03530501AF05EF7005EE24808061
:0D0DAB0003EE24C0FF120DF4AF04020DBCD6
:090BD0007A0D79427BFFE4FDFF80
:100BD9008F328D338B348A358936D3E5339401745A
:100BE900809480503FAB34AA35A93612081C603472
:100BF900AF3205320536E5367002053514F91208AB
:100C09001CFBAD33120D9BAB34AA35A93612081C57
:100C1900B40AD2E4F5320533042536F536E4353520
:050C2900F53580C12239
:100CDD00C3EF940FEE94005023C2AF7BFF7A0D79D2
:100CED00347D017F0F120BD9D294D2977F407E9C19
:0F0CFD00120D5BC294C297120D5B80DFD2AF2243
:100D7B00C290C291D292120B71120CDDD290C29121
:100D8B00120B6F120CDDC290D291120B6F020CDDA5
:1000260075914875924FD2AF7F807E25120D0C12C6
:100036000E18120DCE120E29C290C291C292C2940F
:100046007517007518C8120003120D7B7BFF7A0D19
:1000560079367D01E4FF120BD9E52354F0C4540F21
:10006600753000F531FBAA307D017F06120975E572
:1000760023540F752600F527FBAA267D017F07125C
:1000860009757F06120B7A8E1F8F20E531B5101188
:10009600E530B50F0CE52765127004E5266511609D
:1000A6003012000385300F85311085261185271201
:1000B600E531640445306008E53164054530700675
:1000C600751300751401E53145307005F515751683
:1000D60001E5306003020052E531B4070040030237
:1000E60000529000EFF8282873020104020157021B
:1000F60001A90201FA02024F020332020409E516BF
:1001060045156024E4F515F516852628852729E585
:1001160029640945287005FE7F01800AE52924FF28
:10012600FFE52834FFFE8F217A0D793D120BD4AB03
:1001360029AA28E4FD7F051209750000E51C451B68
:100146006003120C72E52B452A700302005202036B
:10015600F6E52775F014A4F525120BD012096A7B73
:10016600FF7A0D7945E4FD7F05120BD9E524C3130B
:10017600FB7A00E4FD7F071209757BFF7A0D79484B
:10018600E4FD7F0A120BD9E522C313FB7A00E4FDD6
:100196007F0C1209750000E51C451B700302005216
:1001A600020249E52775F014A4F524120BD01209B2
:1001B6006A7BFF7A0D7945E4FD7F05120BD9E524AC
:1001C600C313FB7A00E4FD7F071209757BFF7A0DE6
:1001D6007948E4FD7F0A120BD9E522C313FB7A00A6
:1001E600E4FD7F0C1209750000E51C451B70030237
:1001F6000052804FE52775F014A4F522120BD01299
:10020600096A7BFF7A0D7945E4FD7F05120BD9E576
:1002160024C313FB7A00E4FD7F071209757BFF7A7E
:100226000D7948E4FD7F0A120BD9E522C313FB7A48
:1002360000E4FD7F0C1209750000E51C451B7003E8
:10024600020052120C72020052E51445136015E4C6
:10025600F513F51485261D85271EF50DF50EC2909E
:10026600C291C2927BFF7A0D794BE4FDFF120BD946
:100276000000E51A4519600DE4F519F51A050EE5B5
:100286000E7002050DAE1DAF1E7C007D3C120835BA
:10029600C3E50E9FE50D9E4020E4FBFAFD7F0612A6
:1002A60009750000E51C451B6003120C72E52B4521
:1002B6002A70030200520203F6AE1DAF1E7C007DBB
:1002C6003C120835C3EF950EFFEE950DFEC3EF9475
:1002D6000AEE9400500C7BFF7A0D7952E4FD7F07FD
:1002E6008027AE1DAF1E7C007D3C120835C3EF95FE
:1002F6000EFFEE950DFEC3EF9464EE9400500D7B59
:10030600FF7A0D7952E4FD7F08120BD9AE1DAF1EA0
:100316007C007D3C120835C3EF950EFBEE950DFA79
:10032600E4FD7F061209750000020052E51445132C
:10033600600FE4F513F51485261D85271EF50DF5CA
:100346000E7BFF7A0D794BE4FDFF120BD90000E519
:100356001A4519600DE4F519F51A050EE50E700239
:10036600050DAE1DAF1E7C007D3C120835D3E50E93
:100376009FE50D9E40030203FCC3EF950EFFEE952D
:100386000DFEC3EF940AEE9400500C7BFF7A0D79B4
:1003960052E4FD7F078027AE1DAF1E7C007D3C1218
:1003A6000835C3EF950EFFEE950DFEC3EF9464EE90
:1003B6009400500D7BFF7A0D7952E4FD7F08120BF5
:1003C600D9AE1DAF1E7C007D3C120835C3EF950EDD
:1003D600FBEE950DFAE4FD7F061209750000E51C9B
:1003E600451B6003120C72E52B452A70030200526E
:1003F600120463020052E4FBFAFD7F06120975003F
:100406000080390518E51870020517C394C8E5176A
:100416009400401DE4F517F5187BFF7A0D7954FD1D
:10042600FF120BD9AB20AA1FE4FD7F061209750047
:1004360000D3E5209490E51F94014009C290C29133
:10044600C292020052E51C451B6003120C72E52B9A
:0D045600452A700302005212046302005296
:03000000020A747D
:0C0A7400787FE4F6D8FD75813B020ABBD8
:10081C00BB010689828A83E0225002E722BBFE02DA
:09082C00E32289828A83E493220D
:10083500EF8DF0A4A8F0CF8CF0A428CE8DF0A42ED7
:02084500FE2291
:10084700BC000BBE0029EF8DF084FFADF022E4CC95
:10085700F875F008EF2FFFEE33FEEC33FCEE9DEC5E
:10086700984005FCEE9DFE0FD5F0E9E4CEFD22EDA4
:10087700F8F5F0EE8420D21CFEADF075F008EF2FEE
:10088700FFED33FD4007985006D5F0F222C398FDDF
:050897000FD5F0EA227C
:100C2E00C2D5E830E70FB2D5E4C39BFBE49AFAE4F1
:100C3E0099F9E498F8EC30E717B2D5120C64120863
:100C4E00D8E4C39BFBE49AFAE499F9E498F880039C
:100C5E001208D830D50DE4C39FFFE49EFEE49DFD3F
:040C6E00E49CFC22E4
:100A8000020026E493A3F8E493A34003F68001F266
:100A900008DFF48029E493A3F85407240CC8C33377
:100AA000C4540F4420C8834004F456800146F6DF46
:100AB000E4800B0102040810204080900CAAE47E20
:100AC000019360BCA3FF543F30E509541FFEE4933B
:100AD000A360010ECF54C025E060A840B8E493A302
:100AE000FAE493A3F8E493A3C8C582C8CAC583CA2D
:100AF000F0A3C8C582C8CAC583CADFE9DEE780BEE5
:010CDC000017
:10089C0075F008758200EF2FFFEE33FECD33CDCC13
:1008AC0033CCC58233C5829BED9AEC99E582984096
:1008BC000CF582EE9BFEED9AFDEC99FC0FD5F0D673
:1008CC00E4CEFBE4CDFAE4CCF9A88222B800C1B99D
:1008DC000059BA002DEC8BF084CFCECDFCE5F0CBDB
:1008EC00F97818EF2FFFEE33FEED33FDEC33FCEB14
:1008FC0033FB10D703994004EB99FB0FD8E5E4F9CF
:10090C00FA227818EF2FFFEE33FEED33FDEC33FCBB
:10091C00C933C910D7059BE99A4007EC9BFCE99AAF
:10092C00F90FD8E0E4C9FAE4CCFB2275F010EF2FF4
:10093C00FFEE33FEED33FDCC33CCC833C810D707F4
:10094C009BEC9AE899400AED9BFDEC9AFCE899F82F
:0E095C000FD5F0DAE4CDFBE4CCFAE4C8F922C2
:00000001FF
