:0300000002002ECD
:0C002E00787FE4F6D8FD7581160200759D
:0D0164000114060116030210000001150031
:1001030012015512013B75914875924FC290C291ED
:10011300D292D297C294438E1075A8A0D2AFE515A0
:1001230060FCC2AFD2947F0A7E00120003C2947FA8
:080133000A7E0012000380ECBB
:03002B000200BA16
:1000BA00C0E0C0F0C083C082C0D075D00853C5EF7D
:1000CA00AFBEEF2402FFAEC6EE7E00A80F08800581
:1000DA00C333CE33CED8F9F5138E12E512FF1201CF
:1000EA0072AF13E513120172E5164488F5C5D0D034
:0900FA00D082D083D0F0D0E032B6
:10013B00E4F5C6E5164488F5C57F027E0012000380
:0A014B0075C500E5164488F5C522CD
:0F01550075985A758920758BFB758DFBD28E229C
:08001E00EF4E7003751501227D
:080172003099FDC2998F99221A
:10000300EF1FAA0670011E4A60107C137D88ED1D48
:0A001300AA0470011C4A60E880F4A2
:01001D0022C0
:10003A00020103E493A3F8E493A34003F68001F2D8
:10004A0008DFF48029E493A3F85407240CC8C333C7
:10005A00C4540F4420C8834004F456800146F6DF96
:10006A00E4800B0102040810204080900164E47EC1
:10007A00019360BCA3FF543F30E509541FFEE4938B
:10008A00A360010ECF54C025E060A840B8E493A352
:10009A00FAE493A3F8E493A3C8C582C8CAC583CA7D
:1000AA00F0A3C8C582C8CAC583CADFE9DEE780BE35
:01017100008D
:00000001FF
